{
  "contractName": "TokenVesting",
  "abi": [
    {
      "inputs": [
        {
          "internalType": "contract IERC20",
          "name": "token_",
          "type": "address"
        },
        {
          "internalType": "address",
          "name": "beneficiary_",
          "type": "address"
        },
        {
          "internalType": "uint256",
          "name": "cliffTime_",
          "type": "uint256"
        },
        {
          "internalType": "uint256",
          "name": "linearReleaseInterval_",
          "type": "uint256"
        },
        {
          "internalType": "uint256",
          "name": "releaseTotalCount_",
          "type": "uint256"
        }
      ],
      "stateMutability": "nonpayable",
      "type": "constructor"
    },
    {
      "inputs": [],
      "name": "beneficiary",
      "outputs": [
        {
          "internalType": "address",
          "name": "",
          "type": "address"
        }
      ],
      "stateMutability": "view",
      "type": "function",
      "constant": true
    },
    {
      "inputs": [],
      "name": "finalTime",
      "outputs": [
        {
          "internalType": "uint256",
          "name": "",
          "type": "uint256"
        }
      ],
      "stateMutability": "view",
      "type": "function",
      "constant": true
    },
    {
      "inputs": [],
      "name": "isCalculated",
      "outputs": [
        {
          "internalType": "bool",
          "name": "",
          "type": "bool"
        }
      ],
      "stateMutability": "view",
      "type": "function",
      "constant": true
    },
    {
      "inputs": [],
      "name": "linearReleaseInterval",
      "outputs": [
        {
          "internalType": "uint256",
          "name": "",
          "type": "uint256"
        }
      ],
      "stateMutability": "view",
      "type": "function",
      "constant": true
    },
    {
      "inputs": [],
      "name": "nextReleaseTime",
      "outputs": [
        {
          "internalType": "uint256",
          "name": "",
          "type": "uint256"
        }
      ],
      "stateMutability": "view",
      "type": "function",
      "constant": true
    },
    {
      "inputs": [],
      "name": "releaseAmount",
      "outputs": [
        {
          "internalType": "uint256",
          "name": "",
          "type": "uint256"
        }
      ],
      "stateMutability": "view",
      "type": "function",
      "constant": true
    },
    {
      "inputs": [],
      "name": "releaseCount",
      "outputs": [
        {
          "internalType": "uint256",
          "name": "",
          "type": "uint256"
        }
      ],
      "stateMutability": "view",
      "type": "function",
      "constant": true
    },
    {
      "inputs": [],
      "name": "releaseTime",
      "outputs": [
        {
          "internalType": "uint256",
          "name": "",
          "type": "uint256"
        }
      ],
      "stateMutability": "view",
      "type": "function",
      "constant": true
    },
    {
      "inputs": [],
      "name": "releaseTotalCount",
      "outputs": [
        {
          "internalType": "uint256",
          "name": "",
          "type": "uint256"
        }
      ],
      "stateMutability": "view",
      "type": "function",
      "constant": true
    },
    {
      "inputs": [],
      "name": "token",
      "outputs": [
        {
          "internalType": "contract IERC20",
          "name": "",
          "type": "address"
        }
      ],
      "stateMutability": "view",
      "type": "function",
      "constant": true
    },
    {
      "inputs": [],
      "name": "calculateReleaseAmount",
      "outputs": [],
      "stateMutability": "nonpayable",
      "type": "function"
    },
    {
      "inputs": [],
      "name": "release",
      "outputs": [],
      "stateMutability": "nonpayable",
      "type": "function"
    }
  ],
  "bytecode": "0x60e06040526001600455600060055560006006556000600760006101000a81548160ff0219169083151502179055503480156200003b57600080fd5b50604051620018cf380380620018cf8339818101604052810190620000619190620001fc565b848484428111620000a9576040517f08c379a0000000000000000000000000000000000000000000000000000000008152600401620000a090620002ab565b60405180910390fd5b8273ffffffffffffffffffffffffffffffffffffffff1660808173ffffffffffffffffffffffffffffffffffffffff1660601b815250508173ffffffffffffffffffffffffffffffffffffffff1660a08173ffffffffffffffffffffffffffffffffffffffff1660601b815250508060c08181525050505050600160008190555081600181905550806002819055508260038190555062000176620001616002546001546200018760201b6200072a1790919060201c565b846200019f60201b620007401790919060201c565b6006819055505050505050620004bf565b600081836200019791906200033b565b905092915050565b60008183620001af9190620002de565b905092915050565b600081519050620001c88162000471565b92915050565b600081519050620001df816200048b565b92915050565b600081519050620001f681620004a5565b92915050565b600080600080600060a086880312156200021b576200021a6200041d565b5b60006200022b88828901620001ce565b95505060206200023e88828901620001b7565b94505060406200025188828901620001e5565b93505060606200026488828901620001e5565b92505060806200027788828901620001e5565b9150509295509295909350565b600062000293603283620002cd565b9150620002a08262000422565b604082019050919050565b60006020820190508181036000830152620002c68162000284565b9050919050565b600082825260208201905092915050565b6000620002eb82620003e4565b9150620002f883620003e4565b9250827fffffffffffffffffffffffffffffffffffffffffffffffffffffffffffffffff0382111562000330576200032f620003ee565b5b828201905092915050565b60006200034882620003e4565b91506200035583620003e4565b9250817fffffffffffffffffffffffffffffffffffffffffffffffffffffffffffffffff0483118215151615620003915762000390620003ee565b5b828202905092915050565b6000620003a982620003c4565b9050919050565b6000620003bd826200039c565b9050919050565b600073ffffffffffffffffffffffffffffffffffffffff82169050919050565b6000819050919050565b7f4e487b7100000000000000000000000000000000000000000000000000000000600052601160045260246000fd5b600080fd5b7f546f6b656e54696d656c6f636b3a2072656c656173652074696d65206973206260008201527f65666f72652063757272656e742074696d650000000000000000000000000000602082015250565b6200047c816200039c565b81146200048857600080fd5b50565b6200049681620003b0565b8114620004a257600080fd5b50565b620004b081620003e4565b8114620004bc57600080fd5b50565b60805160601c60a05160601c60c0516113da620004f560003960006106c5015260006103690152600061070601526113da6000f3fe608060405234801561001057600080fd5b50600436106100b45760003560e01c8063af5260bf11610071578063af5260bf14610145578063b8d08db214610163578063b91d400114610181578063c062dc5f1461019f578063de2af4b0146101bd578063fc0c546a146101db576100b4565b806309f24524146100b957806316a33718146100c357806326fbb543146100e157806338af3eed146100ff5780636d6a48891461011d57806386d1a69f1461013b575b600080fd5b6100c16101f9565b005b6100cb610359565b6040516100d89190610e97565b60405180910390f35b6100e961035f565b6040516100f69190610e97565b60405180910390f35b610107610365565b6040516101149190610cdb565b60405180910390f35b61012561038d565b6040516101329190610e97565b60405180910390f35b610143610393565b005b61014d6106b5565b60405161015a9190610e97565b60405180910390f35b61016b6106bb565b6040516101789190610e97565b60405180910390f35b6101896106c1565b6040516101969190610e97565b60405180910390f35b6101a76106e9565b6040516101b49190610e97565b60405180910390f35b6101c56106ef565b6040516101d29190610d1f565b60405180910390f35b6101e3610702565b6040516101f09190610d3a565b60405180910390f35b600760009054906101000a900460ff1615610249576040517f08c379a000000000000000000000000000000000000000000000000000000000815260040161024090610e17565b60405180910390fd5b6001600760006101000a81548160ff021916908315150217905550600061026e610702565b73ffffffffffffffffffffffffffffffffffffffff166370a08231306040518263ffffffff1660e01b81526004016102a69190610cdb565b60206040518083038186803b1580156102be57600080fd5b505afa1580156102d2573d6000803e3d6000fd5b505050506040513d601f19601f820116820180604052508101906102f69190610ab6565b90506000811161033b576040517f08c379a000000000000000000000000000000000000000000000000000000000815260040161033290610e77565b60405180910390fd5b6103506002548261075690919063ffffffff16565b60058190555050565b60025481565b60015481565b60007f0000000000000000000000000000000000000000000000000000000000000000905090565b60035481565b600260005414156103d9576040517f08c379a00000000000000000000000000000000000000000000000000000000081526004016103d090610e57565b60405180910390fd5b60026000819055506103e96106c1565b42101561042b576040517f08c379a000000000000000000000000000000000000000000000000000000000815260040161042290610d77565b60405180910390fd5b600760009054906101000a900460ff1661047a576040517f08c379a000000000000000000000000000000000000000000000000000000000815260040161047190610d97565b60405180910390fd5b60025460045411156104c1576040517f08c379a00000000000000000000000000000000000000000000000000000000081526004016104b890610db7565b60405180910390fd5b600354421015610506576040517f08c379a00000000000000000000000000000000000000000000000000000000081526004016104fd90610d97565b60405180910390fd5b6000610510610702565b73ffffffffffffffffffffffffffffffffffffffff166370a08231306040518263ffffffff1660e01b81526004016105489190610cdb565b60206040518083038186803b15801561056057600080fd5b505afa158015610574573d6000803e3d6000fd5b505050506040513d601f19601f820116820180604052508101906105989190610ab6565b9050600081116105dd576040517f08c379a00000000000000000000000000000000000000000000000000000000081526004016105d490610e77565b60405180910390fd5b60065442106106395761061f6105f1610365565b826105fa610702565b73ffffffffffffffffffffffffffffffffffffffff1661076c9092919063ffffffff16565b600160025461062e9190610ee4565b60048190555061068d565b610674610644610365565b60055461064f610702565b73ffffffffffffffffffffffffffffffffffffffff1661076c9092919063ffffffff16565b6004600081548092919061068790611064565b91905055505b6106a460015460035461074090919063ffffffff16565b600381905550506001600081905550565b60065481565b60045481565b60007f0000000000000000000000000000000000000000000000000000000000000000905090565b60055481565b600760009054906101000a900460ff1681565b60007f0000000000000000000000000000000000000000000000000000000000000000905090565b600081836107389190610f6b565b905092915050565b6000818361074e9190610ee4565b905092915050565b600081836107649190610f3a565b905092915050565b6107ed8363a9059cbb60e01b848460405160240161078b929190610cf6565b604051602081830303815290604052907bffffffffffffffffffffffffffffffffffffffffffffffffffffffff19166020820180517bffffffffffffffffffffffffffffffffffffffffffffffffffffffff83818316178352505050506107f2565b505050565b6000610854826040518060400160405280602081526020017f5361666545524332303a206c6f772d6c6576656c2063616c6c206661696c65648152508573ffffffffffffffffffffffffffffffffffffffff166108b99092919063ffffffff16565b90506000815111156108b457808060200190518101906108749190610a89565b6108b3576040517f08c379a00000000000000000000000000000000000000000000000000000000081526004016108aa90610e37565b60405180910390fd5b5b505050565b60606108c884846000856108d1565b90509392505050565b606082471015610916576040517f08c379a000000000000000000000000000000000000000000000000000000000815260040161090d90610dd7565b60405180910390fd5b61091f856109e5565b61095e576040517f08c379a000000000000000000000000000000000000000000000000000000000815260040161095590610df7565b60405180910390fd5b6000808673ffffffffffffffffffffffffffffffffffffffff1685876040516109879190610cc4565b60006040518083038185875af1925050503d80600081146109c4576040519150601f19603f3d011682016040523d82523d6000602084013e6109c9565b606091505b50915091506109d98282866109f8565b92505050949350505050565b600080823b905060008111915050919050565b60608315610a0857829050610a58565b600083511115610a1b5782518084602001fd5b816040517f08c379a0000000000000000000000000000000000000000000000000000000008152600401610a4f9190610d55565b60405180910390fd5b9392505050565b600081519050610a6e81611376565b92915050565b600081519050610a838161138d565b92915050565b600060208284031215610a9f57610a9e61110b565b5b6000610aad84828501610a5f565b91505092915050565b600060208284031215610acc57610acb61110b565b5b6000610ada84828501610a74565b91505092915050565b610aec81610fc5565b82525050565b610afb81610fd7565b82525050565b6000610b0c82610eb2565b610b168185610ec8565b9350610b26818560208601611031565b80840191505092915050565b610b3b8161100d565b82525050565b6000610b4c82610ebd565b610b568185610ed3565b9350610b66818560208601611031565b610b6f81611110565b840191505092915050565b6000610b87603283610ed3565b9150610b9282611121565b604082019050919050565b6000610baa602983610ed3565b9150610bb582611170565b604082019050919050565b6000610bcd601b83610ed3565b9150610bd8826111bf565b602082019050919050565b6000610bf0602683610ed3565b9150610bfb826111e8565b604082019050919050565b6000610c13601d83610ed3565b9150610c1e82611237565b602082019050919050565b6000610c36602683610ed3565b9150610c4182611260565b604082019050919050565b6000610c59602a83610ed3565b9150610c64826112af565b604082019050919050565b6000610c7c601f83610ed3565b9150610c87826112fe565b602082019050919050565b6000610c9f602383610ed3565b9150610caa82611327565b604082019050919050565b610cbe81611003565b82525050565b6000610cd08284610b01565b915081905092915050565b6000602082019050610cf06000830184610ae3565b92915050565b6000604082019050610d0b6000830185610ae3565b610d186020830184610cb5565b9392505050565b6000602082019050610d346000830184610af2565b92915050565b6000602082019050610d4f6000830184610b32565b92915050565b60006020820190508181036000830152610d6f8184610b41565b905092915050565b60006020820190508181036000830152610d9081610b7a565b9050919050565b60006020820190508181036000830152610db081610b9d565b9050919050565b60006020820190508181036000830152610dd081610bc0565b9050919050565b60006020820190508181036000830152610df081610be3565b9050919050565b60006020820190508181036000830152610e1081610c06565b9050919050565b60006020820190508181036000830152610e3081610c29565b9050919050565b60006020820190508181036000830152610e5081610c4c565b9050919050565b60006020820190508181036000830152610e7081610c6f565b9050919050565b60006020820190508181036000830152610e9081610c92565b9050919050565b6000602082019050610eac6000830184610cb5565b92915050565b600081519050919050565b600081519050919050565b600081905092915050565b600082825260208201905092915050565b6000610eef82611003565b9150610efa83611003565b9250827fffffffffffffffffffffffffffffffffffffffffffffffffffffffffffffffff03821115610f2f57610f2e6110ad565b5b828201905092915050565b6000610f4582611003565b9150610f5083611003565b925082610f6057610f5f6110dc565b5b828204905092915050565b6000610f7682611003565b9150610f8183611003565b9250817fffffffffffffffffffffffffffffffffffffffffffffffffffffffffffffffff0483118215151615610fba57610fb96110ad565b5b828202905092915050565b6000610fd082610fe3565b9050919050565b60008115159050919050565b600073ffffffffffffffffffffffffffffffffffffffff82169050919050565b6000819050919050565b60006110188261101f565b9050919050565b600061102a82610fe3565b9050919050565b60005b8381101561104f578082015181840152602081019050611034565b8381111561105e576000848401525b50505050565b600061106f82611003565b91507fffffffffffffffffffffffffffffffffffffffffffffffffffffffffffffffff8214156110a2576110a16110ad565b5b600182019050919050565b7f4e487b7100000000000000000000000000000000000000000000000000000000600052601160045260246000fd5b7f4e487b7100000000000000000000000000000000000000000000000000000000600052601260045260246000fd5b600080fd5b6000601f19601f8301169050919050565b7f546f6b656e54696d656c6f636b3a2063757272656e742074696d65206973206260008201527f65666f72652072656c656173652074696d650000000000000000000000000000602082015250565b7f4e65656420746f206361636c75617465207468652072656c6561736520616d6f60008201527f756e742066697273740000000000000000000000000000000000000000000000602082015250565b7f52656c6561736520636f756e74206578636565647320746f74616c0000000000600082015250565b7f416464726573733a20696e73756666696369656e742062616c616e636520666f60008201527f722063616c6c0000000000000000000000000000000000000000000000000000602082015250565b7f416464726573733a2063616c6c20746f206e6f6e2d636f6e7472616374000000600082015250565b7f596f752063616c63756c617465642072656c6561736520616d6f756e7420616c60008201527f7265616479210000000000000000000000000000000000000000000000000000602082015250565b7f5361666545524332303a204552433230206f7065726174696f6e20646964206e60008201527f6f74207375636365656400000000000000000000000000000000000000000000602082015250565b7f5265656e7472616e637947756172643a207265656e7472616e742063616c6c00600082015250565b7f546f6b656e54696d656c6f636b3a206e6f20746f6b656e7320746f2072656c6560008201527f6173650000000000000000000000000000000000000000000000000000000000602082015250565b61137f81610fd7565b811461138a57600080fd5b50565b61139681611003565b81146113a157600080fd5b5056fea2646970667358221220ca0732564e636010af4980d93e6dcdca62655dee885fac1f21379b909161a2a264736f6c63430008060033",
  "immutableReferences": {
    "2526": [
      {
        "length": 32,
        "start": 1798
      }
    ],
    "2528": [
      {
        "length": 32,
        "start": 873
      }
    ],
    "2530": [
      {
        "length": 32,
        "start": 1733
      }
    ]
  },
  "source": "//SPDX-License-Identifier: MIT\npragma solidity ^0.8.6;\n\nimport \"@openzeppelin/contracts/token/ERC20/utils/TokenTimelock.sol\";\nimport \"@openzeppelin/contracts/utils/math/SafeMath.sol\";\nimport \"@openzeppelin/contracts/security/ReentrancyGuard.sol\";\n\ncontract TokenVesting is TokenTimelock, ReentrancyGuard {\n  using SafeERC20 for IERC20;\n  using SafeMath for uint256;\n\n  uint public linearReleaseInterval;\n  uint public releaseTotalCount;\n  uint public nextReleaseTime;\n  uint public releaseCount = 1;\n  uint public releaseAmount = 0;\n  uint public finalTime = 0;\n  bool public isCalculated = false;\n\n  constructor(IERC20 token_,\n        address beneficiary_,\n        uint256 cliffTime_, uint linearReleaseInterval_, uint releaseTotalCount_) TokenTimelock(token_, beneficiary_, cliffTime_) {\n    linearReleaseInterval = linearReleaseInterval_;\n    releaseTotalCount = releaseTotalCount_;\n    nextReleaseTime = cliffTime_;\n    finalTime = cliffTime_.add(linearReleaseInterval.mul(releaseTotalCount));\n  }\n\n  /**\n    Calculate Once before hand to understand how much amount to release every time\n    and only calculate once\n  */\n  function calculateReleaseAmount() public {\n    require(!isCalculated, \"You calculated release amount already!\");\n    isCalculated = true;\n\n    uint256 amount = token().balanceOf(address(this));\n    require(amount > 0, \"TokenTimelock: no tokens to release\");\n\n    releaseAmount = amount.div(releaseTotalCount);\n  }\n\n  function release() public override nonReentrant() {\n    require(block.timestamp >= releaseTime(), \"TokenTimelock: current time is before release time\");\n    require(isCalculated, \"Need to cacluate the release amount first\");\n    require(releaseCount <=releaseTotalCount, \"Release count exceeds total\");\n    require(block.timestamp >= nextReleaseTime, \"Need to cacluate the release amount first\");\n\n    uint256 remaining = token().balanceOf(address(this));\n    require(remaining > 0, \"TokenTimelock: no tokens to release\");\n\n    if (block.timestamp >= finalTime) {\n      token().safeTransfer(beneficiary(), remaining);\n      releaseCount = releaseTotalCount + 1;\n    } else {\n      token().safeTransfer(beneficiary(), releaseAmount);\n      releaseCount ++;\n    }\n\n    nextReleaseTime = nextReleaseTime.add(linearReleaseInterval);\n  }\n}",
  "sourcePath": "/Users/seabookchen/coding/leekdao-contracts/contracts/TokenVesting.sol",
  "compiler": {
    "name": "solc",
    "version": "0.8.6+commit.11564f7e.Emscripten.clang"
  },
  "schemaVersion": "3.4.1",
  "updatedAt": "2021-07-05T05:01:34.898Z",
  "networkType": "ethereum",
  "devdoc": {
    "kind": "dev",
    "methods": {
      "beneficiary()": {
        "returns": {
          "_0": "the beneficiary of the tokens."
        }
      },
      "releaseTime()": {
        "returns": {
          "_0": "the time when the tokens are released."
        }
      },
      "token()": {
        "returns": {
          "_0": "the token being held."
        }
      }
    },
    "version": 1
  },
  "userdoc": {
    "kind": "user",
    "methods": {
      "calculateReleaseAmount()": {
        "notice": "Calculate Once before hand to understand how much amount to release every time and only calculate once"
      },
      "release()": {
        "notice": "Transfers tokens held by timelock to beneficiary."
      }
    },
    "version": 1
  }
}